S01300004C6162345F5350495F4D532E7372656384
S11300000C9434000C9451000C9451000C94510045
S11300100C9451000C9451000C9451000C94510018
S11300200C9451000C9451000C9451000C94510008
S11300300C9451000C9451000C9451000C945100F8
S11300400C9451000C9451000C9451000C945100E8
S11300500C9451000C9451000C9451000C945100D8
S11300600C9451000C94510011241FBECFEFD8E022
S1130070DEBFCDBF11E0A0E0B1E0E0EBFBE002C0E9
S113008005900D92AA32B107D9F721E0AAE2B1E0B6
S113009001C01D92AB34B207E1F70E94A0020C9498
S11300A0D6050C9400000F931F93CF938B019C01F2
S11300B0C42F87B18F7C87B9443079F018F441306C
S11300C031F023C0403191F04034C9F01EC0E9EB57
S11300D0F0E080818C7F80831EC0E9EBF0E08081BA
S11300E08D7F808380818160808315C0E9EBF0E09F
S11300F080818E7F80838081826080830CC0E9EB65
S1130100F0E080818360808306C0E9EBF0E08081C9
S11301108C7F8083C1E060E074E284EF90E0A90109
S113012098010E947F05CA01B901605171098109D2
S113013091094C2F50E09A01220F331F032E000C1B
S1130140440B550B0E947F052093B80084E08093F4
S1130150BC00CF911F910F91089584EA8093BC0055
S11301608091BC008823E4F7089584E98093BC005F
S113017008958093BB0084E88093BC008091BC0008
S11301808823E4F78091B900887F883131F0883280
S113019031F0803429F481E0089581E0089581E00C
S11301A0089580FF04C098B1946098B903C098B1D1
S11301B09B7F98B981FF04C098B1986098B903C037
S11301C098B1977F98B982FF04C09BB190649BB9A2
S11301D003C09BB19F7B9BB983FF04C09BB1906814
S11301E09BB903C09BB19F779BB984FF04C09BB1AB
S11301F094609BB903C09BB19B7F9BB985FF04C0EE
S11302009BB198609BB903C09BB1977F9BB986FF54
S113021004C09BB190619BB903C09BB19F7E9BB905
S1130220882324F48BB180628BB908958BB18F7DC0
S11302308BB9089598B19E7F98B90E94D10088B176
S1130240826088B98FE79EE30197F1F700C0000050
S113025088B18D7F88B9089518B82FEF89EF90E0A1
S1130260215080409040E1F700C0000080E30E94EC
S11302701A018FE19EE40197F1F700C0000080E3CA
S11302800E941A018FE19EE40197F1F700C000007B
S113029080E30E941A018FE39CE90197F1F700C003
S11302A0000088E30E941A018CE00E941A0181E098
S11302B00E941A0186E00E941A01089598B1916083
S11302C098B90E94D10088B1826088B98FE79EE313
S11302D00197F1F700C0000088B18D7F88B90895B7
S11302E00F931F93CF93DF938C01C0E0D0E003C042
S11302F00E945E012196F801EC0FFD1F808181119F
S1130300F7CFDF91CF911F910F910895613021F4C0
S113031081580E941A010895623019F481540E9490
S11303201A0108951092C50087E68093C40088E1FD
S11303308093C10086E08093C20008954F925F923B
S11303406F927F92AF92BF92CF92DF92EF92FF9221
S11303500F931F93CF93DF9300D000D0CDB7DEB7B8
S11303602B013C017A0159010E944E0469837A836E
S11303708B839C8329813A81B901330F880B990BB4
S11303800E9486049B01AC01C301B2010E946F0369
S11303902B013C014AE0B70189819A810E94A105A1
S11303A01A82198205C089819A8101969A83898368
S11303B0E981FA81EE0DFF1D80818111F4CF29813D
S11303C03A812F5F3F4F3A8329838EE2808300E096
S11303D010E02AC020E030E040E251E4C301B20161
S11303E00E9412052B013C010E944E04C980DA8050
S11303F03FEFC31AD30AE981FA81EE0DFF1D20E312
S1130400260F2083072E000C880B990B0E9486046C
S11304109B01AC01C301B2010E946F032B013C019B
S11304200F5F1F4FDA82C9820A151B059CF22981CE
S11304303A812E0D3F1DF90110820F900F900F90FD
S11304400F90DF91CF911F910F91FF90EF90DF906C
S1130450CF90BF90AF907F906F905F904F90089532
S1130460882324F495B1916095B903C095B19E7F1A
S113047095B986FF04C095B1926095B903C095B152
S11304809D7F95B985FF04C09BB194609BB903C05F
S11304909BB19B7F9BB984FF04C09BB198609BB9BF
S11304A003C09BB1977F9BB983FF04C09BB190614C
S11304B09BB903C09BB19F7E9BB982FF04C09BB1D3
S11304C090629BB903C09BB19F7D9BB981FF04C01F
S11304D09BB190649BB903C09BB19F7B9BB980FF88
S11304E004C08BB180688BB908958BB18F778BB9B9
S11304F0089587B18F6387B98AB18C6F8AB918B8A8
S11305000E942C010E94920180E00E94300284B17A
S1130510806284B9789408959091C00095FFFCCFCF
S11305208093C6000895CF93DF93EC0103C0219616
S11305300E948C0288818111FACFDF91CF910895B6
S113054041E060EA76E881E090E00E9453000E9476
S1130550790261E081E00E94860180E091E00E94DE
S1130560700161E087E00E94860185E091E00E94CD
S1130570700185B1806285B90E94AD0080E68093E8
S113058033010E94B90080933401813039F00E9414
S1130590B5008BE091E00E94930209C082E50E94BD
S11305A0B9000E94B5008FE091E00E9493022FEF02
S11305B089E698E1215080409040E1F700C00000B6
S11305C085B18F7D85B90E94AD0081E680933301AA
S11305D00E94B90080933401813011F00E94B5006B
S11305E084E88093BC008091BC008823E4F7809168
S11305F0BB00809330010E94B500809130010E94BD
S113060030022FEF89E698E1215080409040E1F7D5
S113061000C000006091300170E080E090E00E9432
S1130620860420E030E040EA50E40E94120520E015
S113063030E04FE753E40E94DC0360932B01709396
S11306402C0180932D0190932E0122E030E046E3AB
S113065051E00E949E0162E081E00E94860186E3EF
S113066091E00E94700180913001882329F085E196
S113067091E00E94930206C0811104C08AE191E0D6
S11306800E94930286E50E945E0160912F016093AF
S11306902A0170E080E090E00E94840421E030E0D0
S11306A046E351E00E949E0162E087E00E948601D9
S11306B086E391E00E94700180912F01882329F044
S11306C080E291E00E94930206C0811104C08AE195
S11306D091E00E9493028EE40E945E014ACF50583A
S11306E0BB27AA270E9487030C94D8040E94CA043B
S11306F038F00E94D10420F039F49F3F19F426F415
S11307000C94C7040EF4E095E7FB0C94C104E92FA4
S11307100E94E90458F3BA17620773078407950720
S113072020F079F4A6F50C940B050EF4E0950B2E4D
S1130730BA2FA02D0B01B90190010C01CA01A0012F
S11307401124FF27591B99F0593F50F4503E68F18A
S11307501A16F040A22F232F342F4427585FF3CFCB
S1130760469537952795A795F0405395C9F77EF49C
S11307701F16BA0B620B730B840BBAF09150A1F0E5
S1130780FF0FBB1F661F771F881FC2F70EC0BA0F6B
S1130790621F731F841F48F4879577956795B795F3
S11307A0F7959E3F08F0B0CF9395880F08F09927EE
S11307B0EE0F9795879508950E94F0030C94D80442
S11307C00E94D10458F00E94CA0440F029F45F3F0B
S11307D029F00C94C10451110C940C050C94C70419
S11307E00E94E90468F39923B1F3552391F3951B0F
S11307F0550BBB27AA2762177307840738F09F5F3E
S11308005F4F220F331F441FAA1FA9F335D00E2EAA
S11308103AF0E0E832D091505040E695001CCAF717
S11308202BD0FE2F29D0660F771F881FBB1F2617DA
S113083037074807AB07B0E809F0BB0B802DBF01B1
S1130840FF2793585F4F3AF09E3F510578F00C9480
S1130850C1040C940C055F3FE4F3983ED4F38695F1
S113086077956795B795F7959F5FC9F7880F911DA1
S11308709695879597F90895E1E0660F771F881F8D
S1130880BB1F621773078407BA0720F0621B730B40
S1130890840BBA0BEE1F88F7E09508950E94550467
S11308A06894B1110C940C0508950E94F10488F029
S11308B09F5798F0B92F9927B751B0F0E1F0660F20
S11308C0771F881F991F1AF0BA95C9F714C0B13061
S11308D091F00E940B05B1E008950C940B05672F6D
S11308E0782F8827B85F39F0B93FCCF38695779590
S11308F06795B395D9F73EF4909580957095619579
S11309007F4F8F4F9F4F0895E89409C097FB3EF4A3
S113091090958095709561957F4F8F4F9F4F992348
S1130920A9F0F92F96E9BB279395F69587957795C6
S11309306795B795F111F8CFFAF4BB0F11F460FF86
S11309401BC06F5F7F4F8F4F9F4F16C0882311F0DE
S113095096E911C0772321F09EE8872F762F05C0F2
S1130960662371F096E8862F70E060E02AF09A958D
S1130970660F771F881FDAF7880F9695879597F982
S1130980089597F99F6780E870E060E008959FEF0D
S113099080EC089500240A94161617061806090612
S11309A0089500240A9412161306140605060895E1
S11309B0092E0394000C11F4882352F0BB0F40F469
S11309C0BF2B11F460FF04C06F5F7F4F8F4F9F4FA9
S11309D0089557FD9058440F551F59F05F3F71F02B
S11309E04795880F97FB991F61F09F3F79F0879592
S11309F00895121613061406551FF2CF4695F1DF1B
S1130A0008C0161617061806991FF1CF86957105AA
S1130A10610508940895E894BB2766277727CB01DE
S1130A2097F908950E9425050C94D8040E94CA04DD
S1130A3038F00E94D10420F0952311F00C94C104E5
S1130A400C94C70411240C940C050E94E90470F35F
S1130A50959FC1F3950F50E0551F629FF001729F5F
S1130A60BB27F00DB11D639FAA27F00DB11DAA1F6E
S1130A70649F6627B00DA11D661F829F2227B00DBB
S1130A80A11D621F739FB00DA11D621F839FA00D46
S1130A90611D221F749F3327A00D611D231F849F96
S1130AA0600D211D822F762F6A2F11249F575040ED
S1130AB09AF0F1F088234AF0EE0FFF1FBB1F661F68
S1130AC0771F881F91505040A9F79E3F510580F031
S1130AD00C94C1040C940C055F3FE4F3983ED4F3EA
S1130AE0869577956795B795F795E7959F5FC1F7D5
S1130AF0FE2B880F911D9695879597F90895A1E28D
S1130B001A2EAA1BBB1BFD010DC0AA1FBB1FEE1F83
S1130B10FF1FA217B307E407F50720F0A21BB30BCE
S1130B20E40BF50B661F771F881F991F1A9469F74A
S1130B3060957095809590959B01AC01BD01CF01A6
S1130B400895BB274A3031F4992322F4BDE29095ED
S1130B5081959F4F0C94AD05BB27FB015527AA2710
S1130B60880F991FAA1FA41710F0A41B8395505136
S1130B70B9F7A05DAA3308F0A95DA193009779F7AE
S1130B80B111B1931192CB010C94C605DC01FC01A7
S1130B90672F71917723E1F7329704C07C916D93AD
S1130BA070836291AE17BF07C8F30895F894FFCF1E
S1130BB04144433A00434F4E543A0069662000656D
S1130BC06C7365200068617920006E6164612000A7
S10D0BD06861793220000D0A00006C
S9030000FC
